:020000040040BA
:10000000683700206D1340006913400069134000F9
:1000100069134000691340006913400000000000AC
:100020000000000000000000000000006913400014
:10003000691340000000000069134000691340008C
:1000400069134000691340006913400069134000C0
:1000500069134000691340006913400069134000B0
:1000600069134000691340006913400069134000A0
:100070006913400069134000691340006913400090
:100080006913400069134000691340006913400080
:100090006913400091154000D91540001116400029
:1000A0006913400069134000691340006913400060
:1000B00069134000691340007D1040008D1040001E
:1000C0006913400069134000691340006913400040
:1000D00069134000D50940006913400069134000CE
:1000E0006913400069134000691340006913400020
:1000F000691340006913400010B5054C237833B9EB
:10010000044B13B10448AFF300800123237010BDEA
:100110004004002000000000BC1840000C4B43B11C
:100120000C480D4910B5AFF300800C48036823B9A3
:1001300010BD0A48036833B97047094B002BF7D04C
:10014000BDE810401847064B002BF5D0184700BFFC
:1001500000000000BC18400044040020BC1840000F
:1001600000000000036823F0040303607047036885
:1001700043F004030360704741607047816070473B
:1001800000697047006AC0F30740704700EB4111F7
:10019000D1F8100270478B790A781B0403F470239E
:1001A00000EB421043F40003C0F81C3270470A7899
:1001B0000B7900EB421063B9C0F80032C0F804328A
:1001C000C0F80832C0F81432C0F81832C0F81C3237
:1001D0007047D0F80032CA7923F4702343EA02430F
:1001E000C0F800324A79CB6892B143F00053C0F8AE
:1001F00004320B6943F00053C0F80832D0F80032E3
:100200000A7923F0E06343EA0263C0F800327047E2
:10021000C0F804320B69EFE78A6802F0C07370B56A
:10022000B3F1C07F0B784FEA431300EB0305C2F331
:100230000342D5F80C628A7126F060464E61D5F80B
:1002400014628E6114BF00240224042A84BFD5F8EE
:100250001822CA610344D3F810328B60DB0148BF17
:1002600044F00404014B9847204670BD97014000BC
:1002700030B50A7852018418D4F810328B601B0212
:1002800019D54D790B690DB143F00053C4F808320C
:1002900083188C69C3F814428C79042C84BFCC6910
:1002A000C3F818428B7910441B0403F47023C0F880
:1002B0001C32002030BD012030BD000070B588B078
:1002C0000024064D8DF804400646009469463046E9
:1002D0000134A847082CF8D108B070BDAF01400028
:1002E000F8B546F2A813044603FB02F00B18013BD5
:1002F000B3FBF0F3802B01D90020F8BD4FF4FA5086
:100300005043B0EB510FF7D84FF47A7308265A4395
:100310004FF0FF373346B1FBF0F5802D06D800FBD8
:100320001515BD4202D23DB12F461E460133DBB248
:100330001A2B1044EFD133465A43B1FBF2F1C9B244
:100340000129D9D9226822F0010222601A4A083B09
:10035000062000FB0322013993785078013B0138D5
:100360001B01000200F4E06003F070030343D07847
:1003700012790138013A00F00700120302F44052EA
:1003800003430904134301F4FE01194320460B4BB8
:1003900061619847236843F0010323600020084B04
:1003A0000246920204D49842A6D022690130F8E7AE
:1003B000C01A18BF0120F8BDAC174000BD024000B4
:1003C000A086010010B589014318022444504FF063
:1003D000FF319962196A5A6010BD890105234350A3
:1003E000704700EB8111CA61704700EB81114A62CE
:1003F000704700EB8111086A7047F0B587B002249E
:1004000001940824029420240394802404940C9CD6
:10041000E40B059401AF002457F82450B1FBF5F626
:1004200086424FEA164E04D3864505D90134052C81
:10043000F2D1002007B0F0BD02B1156003B11C601D
:100440000120F7E7204B9FED217ADFED216A0F2293
:100450005A66D3ED1A7A1F4AF8EE677A84B0CDED6A
:10046000037ADDED037A67EE877A87EEA67ADFED11
:100470001A6A8DED037ADDED037A9FED187A77EE37
:10048000C77A9FED177A67EE877A87EEA67AF3EE42
:100490000B7A77EE277ACDED037A9DED037ADFEDC7
:1004A000117AB4EEE77AF1EE10FAC8BFCDED037A17
:1004B000DDED037AFCEEE77ACDED017A9DF80430AC
:1004C000937004B0704700BF00000B4000404E45E1
:1004D00000F07F475C0400200000EB430000B444C0
:1004E0000000C84200007F432DE9F04F844CDFF844
:1004F0009C92844EDFF8988240F2FF3222602261A3
:10050000C4F8A020804A4FF4E4711160126822639D
:1005100087B00A25082748466763B04727634046E7
:10052000B047013DF6D1794E794B31687948794F22
:10053000794D4FF47A7298474FF0FF317548774BF9
:1005400098477448764B98473846A84710F0F854B7
:10055000FAD1744B6F489847734B20225A60734B03
:1005600003F580721D461C601C715C719C71DC710E
:100570009C60DC601C615C619C61DC6120339342A7
:10058000F1D101272C604FF08D63694C2F712B61E5
:10059000EC6066495F48DFF8FC91DFF878B1C84746
:1005A000644BEB624FF08C632F6285F824702B63F1
:1005B00061495848614DC84761495648614B984761
:1005C00002274FF0030AA04607F2FE4308EA8343DE
:1005D00000242F6085F804A0EC602B612946584662
:1005E0000137C847072F05F12005EDD1564D574F6C
:1005F000574BDFF8A491DFF8A4B128469847384656
:10060000544B98474FF4A0233B603946524BBC757E
:10061000284698476B68514823F08F036B60504B16
:100620009847CA463BF81450474F4C4A294638462B
:10063000C8474FF400637D66FB664FF6FF739D422B
:1006400018BF012304F1010418BF03FA05F50A2CB1
:100650007D61E7D1414A3C48DFF84491DFF84481AD
:100660000F21D0470F254FF400637D6604A8FB6679
:100670003C4B9847002404A933483B4B8DF810406D
:1006800098474FF400437B6129460123374A2E489F
:10069000374D384FA84759F824503168009103ABC3
:1006A00002AA2846C047039A029B3068B0FBF3F0C9
:1006B0002146B0FBF5F542F4804238462E4B984770
:1006C00021462A4638462D4B984710222146384667
:1006D0002B4B984721462B4B384698472A4BE356DD
:1006E0000122590903F01F0302FA03F301340E4AF1
:1006F000032C42F82130CED107B0BDE8F08F00BF07
:1007000000140E400100002010000020740400209E
:10071000E102400000000140810140007D014000F5
:100720006F0140006501400000E100E0A4040020EA
:100730000000FC1FFFFFFB1FC4040020E404002096
:10074000030008007901400000000B4088040020ED
:100750009D104000D10E4000210F40008404002075
:10076000010F40000B0F4000BF0E40004504400049
:100770002910400000000940C5034000E303400089
:10078000EB034000DB0340006018400069180500DF
:100790004DFF0200AF014000910E400018184000CC
:1007A00054184000FB034000024B09B11863704726
:1007B0005863704700140E4013B5012307EE102A4A
:1007C0001D4C8B40226B1342FCD04166D0ED1A7A4F
:1007D000DFED1A6AB8EE477AF8EE677A77EEC77AF5
:1007E0009FED177A67EE877A87EEA67ADFED157AA6
:1007F000B4EEE77AF1EE10FA1ADCDFED136AC7EE19
:10080000267AB2EE0A7A67EE877AB2EE047A67EE5B
:10081000877AB7EE007AF4EEC77AF1EE10FA09D4CF
:10082000FCEEE77ACDED017A9DF8040002B010BD30
:10083000FF20FBE70020F9E700000B4000F07F47B6
:1008400000404E450000A54400005C432DE9F843FC
:10085000274B284C002502221A602F46A9464FF04C
:100860000A0801262378FF2B4FEA850232D10023A4
:100870002370042320496370086806FA05F30343D4
:100880000B6001271D4B1A48196806FA05F30B4047
:1008900017BF63686370013363601ABF2378A37066
:1008A0006360174B18BF66709A58164B33F81510D3
:1008B000154B9847013504F8080BB0FBF8F00A2DEA
:1008C00048445FFA80F9CDD1104B83F80490DF7073
:1008D000BDE8F8830E49B3FBF8F351F825108B42BD
:1008E000D0D96368142BCDD9002323700223C1E72C
:1008F00000000B406406002064040020100000206B
:100900002C18400018184000B90740005C04002073
:100910006418400070B572B60B4C0C4E23680C483E
:1009200040F20D252B4073630A4B984723682B40F8
:100930003363226823682A4023EA0203236062B6F5
:10094000BFF36F8F70BD00BF6404002000140E4021
:1009500069180500010000200369174A93421FD05F
:10096000B3F18D6F09D0B3F18C6F23D1027F4FF4B7
:1009700016735343114A13607047114B1A68836909
:1009800043F4E47323EA02030E4A13600E4B002182
:1009900019600E4913680B631368DB434B637047A0
:1009A000064B027F9A71427F837F43EA0223084A03
:1009B0001BB21380704700BF000064047C04002059
:1009C00064040020100000206804002000140E4081
:1009D0005C040020F8B52848284CA04710F0FF0F11
:1009E00020D0254F264C0025EEB231463846A04790
:1009F000020213D5234C244B04EB46142146A0607D
:100A00001D48984701252046204B9847204B2571CB
:100A10002146194898471F4B1D70F8BD0135082D18
:100A2000E2D1F8BD030325D51B4B134848221A60B9
:100A30001A4A196811631B68DB435363184B012280
:100A4000DA70184B4FF47A721968174B98474FF0C9
:100A5000FF310948154B984772B60748144B064DAD
:100A600098472846A04710F0F85FFAD10248114B8A
:100A7000984762B6F8BD00BF000001408101400008
:100A80008D014000A40400201902400059094000D3
:100A9000AF0140006D0400201000002000140E4043
:100AA0005C04002074040020E10240007D0140004D
:100AB0006F014000650140002DE9F74F964C974BC0
:100AC000974D01934FF0040804F1400A954F00231D
:100AD000A365E3651A461946A8F1040C4FF0010E10
:100AE0003E460CEB0300D7F800B00EFA00F010EA17
:100AF0000B0F1CBFD8000EFA00F003F101031CBF5E
:100B000001430122042BECD102B1A1650023404630
:100B10001F4619464FF0010E32680EFA00F919EA25
:100B2000020F18BF0EFA03F703F108031CBF394385
:100B30000127202B00F10100EED107B1E165019BF7
:100B4000794E13F8011F0193A36D784FDFF8F8B1C8
:100B50000B43A365082384F8463051462846B04726
:100B600051462846B847D94602212846D8470002B0
:100B700004D428466E4B98476428F5D908F1080834
:100B8000B8F11C0FA2D10023A365E365694B6A4944
:100B90009A7884F85920072284F85A20DA7884F861
:100BA0005B20A26D1B7984F85C3042F0300208258E
:100BB000A26584F846505A48DFF86481DFF870A1D6
:100BC000B0475D495648B8475C4B84F8C6505C4D09
:100BD0005C49534801221A706B7884F8D8306B7ADC
:100BE00084F8D9306B7C84F8DA306B7E84F8DB30A3
:100BF00095F8213084F8DC3095F8293084F8DD3020
:100C000095F8313084F8DE3095F8393084F8DF30EB
:100C1000B0474C494248B84706214046C847010200
:100C20006FD595F8413047493D48DFF8048143F0DE
:100C3000400384F8D83095F8493084F8D93095F8D5
:100C4000513084F8DA3095F8593084F8DB3095F873
:100C5000613084F8DC3095F8693084F8DD3095F83F
:100C6000713084F8DE3095F8793084F8DF30B047A1
:100C700034492B482A4DB84706212846C847020266
:100C800044D50823DFF8B8B0DFF8C0A0DFF89080C3
:100C900084F8663000259BF8002084F879209BF8C2
:100CA000082084F87A209BF8102084F87B209BF899
:100CB000182084F87C209BF8202084F87D209BF865
:100CC000282084F87E209BF8302084F87850514604
:100CD00084F87F204046B04751464046B84703213C
:100CE0004046C847030204D44046114B9847642845
:100CF000F5D90135022D0BF1380BCCD103B0BDE88D
:100D0000F08F4046D047642886D98AE72846C047F6
:100D10006428B1D9B5E700BFA40400208B184000B7
:100D200000000140100000207102400097014000C7
:100D3000850140005C040020E40400206C040020D5
:100D400064060020640500208D0140000405002099
:100D5000064B48221A60064A196811631B68DB4378
:100D60005363044B0122DA70704700BF100000206B
:100D700000140E405C0400200138062818D8DFE873
:100D800000F00407090C0E1014000020094B18474E
:100D90000120FBE70020084BF9E71020FBE72020AB
:100DA000F9E73E210020054B18473E210120FAE7D4
:100DB000704700BF3D1140005D114000A11140008F
:100DC00010B5024CA0470028FCD010BDE91140002E
:100DD00070B50D480D4C0E4DA04706200D4B9847A1
:100DE0000D4B98470D4B98470D4B0E4A9A62A847FA
:100DF0000028FCD00C4B102098470C4B98472346FA
:100E00000B48BDE870401847000E2707D914400072
:100E100009124000790D4000C10D4000F911400059
:100E200000040E40043F1520F9104000111440004A
:100E3000C03B470373B5026BC36A134D1340019364
:100E4000431B5842114D58415C2303FB00550024BD
:100E500001260F2C0DD8019B06FA04F2134203D091
:100E600055F8243003B198470134172CF1D102B062
:100E700070BD142C94BF04F1080304F10903019A16
:100E800006FA03F3EAE700BF00400B40AC05002080
:100E900030B51578046E01238B40002D24EA03043D
:100EA00008BF002323430366446D4B000321994090
:100EB00024EA0104517899402143416530BD4B78C3
:100EC0000A7813430367D1F8023043677047000084
:100ED000094B002280E80C00084B83604FF480230C
:100EE000C360022303750123026143758375C275D4
:100EF0000376437683767047C03B4703808D5B0063
:100F000000230370012343707047002303702023E4
:100F10004370FF23438040F6FF73838070470000D7
:100F2000F0B5036B13F080735CD101220260CA7DBF
:100F3000CC68002A8A7D14BF4FF000460026002AA4
:100F40000A6942EA04020C7D4FEA046404F070640A
:100F500042EA04024C7D4FEA047404F0405442EA31
:100F600004028C684FEA44074C68B4FBF7F404F1C0
:100F7000FF344FEA0424A4B242EA040214BF4FF43F
:100F80000005002532432A4342600A7E0C68002A8D
:100F900014BF4FF08072002222434C7E002C14BFFD
:100FA0004FF000740024224382608A7E120202F411
:100FB0004072C0F894200C4A904208D10B4A19465E
:100FC00042F823100133172BFAD10020F0BD084A54
:100FD0009042FAD1054819461A1804335C2BD165A2
:100FE000FAD1F2E71920F0BD00000B40AC0500205B
:100FF00000400B400B4B994201D1416270470F29D1
:1010000008D803D14FF4004343627047012303FA29
:1010100001F1F2E714294FF0010394BF08310931BF
:10102000F5E700BFFFFF00DF30B4104C104DA042C9
:101030000CBF172400240C444FEA031345F8242066
:101040000C4A15BF4FF080444FF00044DBB2DBB2D6
:1010500015BFC2F88041C2F8804182F81E3382F881
:101060001F331460044B30BC184700BF00400B40D6
:10107000AC05002000E100E0F50F40000148024B04
:10108000184700BF00000B40350E40000148024BDE
:10109000184700BF00400B40350E4000124B07B50B
:1010A00098420CBF1F201E20104B9847104A93787F
:1010B000FF2B00D1FEE7EFF31083B3FA83F35B0954
:1010C000019372B6BFF35F8F0A4900230B709378C8
:1010D00001980133937020B101230B70BFF35F8F30
:1010E00062B603B05DF804FB00400B4019124000EB
:1010F000A40500200A0000200F4B1A6B22F070029A
:101100001043186340F60102996E08070CD51A6B5C
:1011100022F0030242F002021A6340F60102996EC5
:10112000090705D500207047013AEDD1012070472D
:10113000013AF4D1FAE700BF00040E40054A012845
:1011400001BF936843F0254343F480139360024B3F
:101150001360704710180E40080000A50F4B196A65
:1011600041F45C1141F0080119629A6E9103FCD5BB
:101170001A6A22F45C1222F0700242F45C121043EC
:1011800018629A6E9203FCD51A6A22F09B7222F4BE
:10119000803242F45C121A62704700BF00040E40B5
:1011A0000E4A136A28B10E4919400E4B0B431362C5
:1011B000704723F45C1323F00303090243F45C1328
:1011C00089B243F001030B431362936EDB07FCD536
:1011D000136A43F09B7343F48033E8E700040E4046
:1011E000FCFFC8FE02003701024B986E00F480300D
:1011F000704700BF00040E40024B4FF000529A624D
:10120000704700BF00040E40024B986E00F00200D1
:10121000704700BF00040E402F2818D81F280D4A21
:101220004FF0010308D8916903FA00F030EA010396
:1012300000D01061002070472038D2F8081103FA5E
:1012400000F030EA0103F5D0C2F80001F2E7012016
:10125000704700BF00040E4000F01F02400900F577
:10126000001000F207704002012393400A074CBFB0
:1012700043660366CA064CBFC0F89430C0F890308D
:101280008A064CBF0365436511F0C00F14BF0362AB
:1012900043620A064CBFC0F88430C0F88030026F49
:1012A00011F0010F14BF1A439A430267426F890776
:1012B0004CBF134322EA030343677047244B2DE9D5
:1012C000F047244C244DDFF89C804FF40049C3F8CC
:1012D0000490082600212320A847666000212220D0
:1012E000A847042701236760C4F81036C4F8A03665
:1012F0001A4B4FF400721A610221C3F8A0204C204F
:10130000A8474FF48053C8F8043002214F20A84763
:10131000C8F804900920C4F81076C4F8A076C4F880
:101320001066C4F8A0660E4CA0470A20A0470B2008
:10133000A0470C20A0470D20A0472520A04715203E
:10134000A0471620A04723461720BDE8F0471847BE
:1013500050180E4000100E405912400000140E406C
:101360001912400000120E40FEE7000007B51D4BA9
:101370001D4A9A422AD11D4B1D4A002193422ED369
:101380001C4B1D4A23F07F039360EFF31083B3FAE5
:1013900083F35B09019372B6BFF35F8F174A184955
:1013A0000023137001980B6843F470030B60BFF3C4
:1013B0004F8FBFF36F8F20B101231370BFF35F8F87
:1013C00062B6104B9847104B9847FEE70F49043A16
:1013D0008B42D0D252F8040F43F8040BF8E743F8DD
:1013E000041BCBE700000020BC1840004004002094
:1013F000640700200000400000ED00E00A0000202B
:1014000088ED00E0651640003D15400040040020D6
:1014100010B52B4A2B4B116B01F0030101291DD094
:1014200012D302292BD0116B01F0700170291BBF60
:10143000116B1A681A68C1F3021112BFCA40032166
:10144000B2FBF1F21A6010BD1F4949690C064CBF8E
:101450004FF400414FF4FA411960E4E7116AC80102
:1014600001D51A49F8E71A491960116A01F07001AB
:10147000102902D02029F4D0D5E71649ECE7116AEB
:10148000C90101D5114919E011491960116A01F02A
:101490007001102911D02029F4D0116B01F0030143
:1014A0000229C0D1946A1968906AC4F30A4404FB03
:1014B0000111C0B2B1FBF0F1CEE706491960ECE7CB
:1014C00000040E400C00002010180E40001BB70056
:1014D00000093D0000127A000E4B98420E4B03D8D3
:1014E0004FF080621A6070470C4A904201D80C4A53
:1014F000F8E70C4A904201D80B4AF3E70B4A9042B6
:1015000001D80B4AEEE70B4A904294BF4FF00422F9
:10151000094AE7E7FF2C3101000A0E40FF59620239
:1015200000010004FF86930300020004FFB3C4041B
:1015300000030004FFE0F5050005000408B50B4BAF
:101540000B4D0C4E98470C4B0C4A1A600C4B9847AD
:101550000C4B98470C4C2B7803B9B0472378002BE1
:10156000F9D00A4B984700232370F3E7D10D4000D0
:101570006C040020B90A400074040020C03B4703FB
:10158000BD124000E9044000780400204D084000EE
:101590000B4B0C4810B5002198470B4B1A680132D1
:1015A0001A601B68322B04D9084B02221A70084BB0
:1015B000984700210348074BBDE81040184700BF7B
:1015C000F303400000000940680400206D0400207F
:1015D000510D4000DB03400010B5084C084B0121C1
:1015E00020469847074B00221A70074B01211970BB
:1015F0002046064BBDE81040184700BF00000940D8
:10160000F30340006C04002078040020DB0340005A
:101610000D4B0E4810B5022198470D4B1B680BB1BE
:101620000C4B98470C4B9B784B2B06D9002140F272
:10163000FF300A4B984772B6FEE702210348084B79
:10164000BDE81040184700BFF30340000000094008
:1016500070040020150940005C040020A907400028
:10166000DB03400070B50F4E0F4D761BB61018BF50
:10167000002405D0013455F8043B9847A642F9D11F
:101680000A4E0B4D761B00F007F9B61018BF002468
:1016900006D0013455F8043B9847A642F9D170BDF5
:1016A00070BD00BFA4184000A4184000AC18400052
:1016B000A4184000024B13B1024800F005B870476F
:1016C00000000000D5164000002301461A461846C7
:1016D00000F01AB838B50A4C0A4D641BA4100AD0A1
:1016E00004F18043013B05EB8305013C55F80439C7
:1016F0009847002CF9D1BDE8384000F0D7B800BFBA
:10170000BC184000B81840002DE9F047254C25686A
:10171000D5F848410646884692469946C4B3606863
:101720001F2817DC431C76B104EB80050122C5F8A5
:1017300088A0D4F8881182401143022EC4F8881181
:10174000C5F808911ED00230636044F82080002064
:10175000BDE8F087144B03B34FF4C870AFF30080BB
:101760000446D0B1D5F84831002780E88800C5F894
:10177000484138460123C4F88871C4F88C71002EA2
:10178000E1D0D1E7D4F88C110A43C4F88C21DAE710
:1017900005F5A674C5F84841C1E74FF0FF30BDE834
:1017A000F08700BF94184000000000000803020208
:1017B000034B0902030302430A03030303460B041A
:1017C000030304480C03040404430D040404044DFF
:1017D0000E04040504400F04050504431005050527
:1017E00004451106050504471205060604431306C1
:1017F00006060444140706060446150806060447B0
:1018000016070707044417080807044618070808BE
:101810000443190808080444000002000100030002
:10182000040005000A00090006000B00CB020000BE
:10183000D0020000DA020000E4020000B202000060
:10184000940200009402000052030000C60200004F
:1018500076020000640000000A00000001000000A1
:10186000151617001A0000000A0000000F00000003
:101870000C0000000200000006000000060000004E
:1018800003000000050000000F00000000102030E1
:101890000000000018000020F8B500BFF8BC08BC2C
:1018A0009E467047B51640001D014000F8B500BFC8
:0C18B000F8BC08BC9E467047F9004000E0
:1018BC00BFF35F8F0138FBD17047010000093D0079
:1018CC00C80100000000000000000000040300201C
:1018DC006C030020D4030020000000000000000076
:1018EC0000000000000000000000000000000000EC
:1018FC0000000000000000000000000000000000DC
:10190C0000000000000000000000000000000000CB
:10191C0000000000000000000000000000000000BB
:10192C0000000000000000000000000000000000AB
:10193C00000000000000000000000000000000009B
:10194C00000000000000000000000000000000008B
:10195C00000000000000000000000000000000007B
:10196C00000000000000000000000000000000006B
:10197C0001000000000000000E33CDAB34126DE608
:10198C00ECDE05000B000000000000000000000071
:10199C00000000000000000000000000000000003B
:1019AC00000000000000000000000000000000002B
:1019BC00000000000000000000000000000000001B
:1019CC00000000000000000000000000000000000B
:040000050040136D37
:00000001FF
