S01200005044555F766572312E302E73726563EE
S214400000E837002015144000111440001114400039
S214400010111440001114400011144000000000006C
S2144000200000000000000000000000001114400026
S214400030111440000000000011144000111440004C
S21440004011144000111440001114400011144000D7
S21440005011144000111440001114400011144000C7
S21440006011144000111440001114400011144000B7
S21440007011144000111440001114400011144000A7
S2144000801114400011144000111440001114400097
S21440009011144000BD1640000517400039174000B7
S2144000A01114400011144000111440001114400077
S2144000B01114400011144000591140006D114000C9
S2144000C01114400011144000111440001114400057
S2144000D011144000890A40001114400011144000D9
S2144000E01114400011144000111440001114400037
S2144000F0111440001114400010B5054C237833B954
S214400100044B13B10448AFF300800123237010BDA5
S2144001104004002000000000E41940000C4B43B1AE
S2144001200C480D4910B5AFF300800C48036823B95E
S21440013010BD0A48036833B97047094B002BF7D007
S214400140BDE810401847064B002BF5D0184700BFB7
S21440015000000000E419400044040020E419400078
S21440016000000000036823F0040303607047036840
S21440017043F00403036070474160704781607047F6
S21440018000697047006AC0F30740704700EB4111B2
S214400190D1F8100270470A788B791B0403F4702359
S2144001A043F4000300EB4210C0F81C3270470B6863
S2144001B00A791AB330B4DBB200EB4312D2F80042ED
S2144001C0CD7924F4702444EA0544C2F800424C79C0
S2144001D02CB3CC6844F00054C2F804420C6944F096
S2144001E00054C2F80842D2F80032097923F0E0639E
S2144001F043EA0163C2F8003230BC7047DBB200EB22
S21440020043100023C0F80032C0F80432C0F8083269
S214400210C0F81432C0F81832C0F81C327047CC68A8
S214400220C2F804420C6900EB4313C3F80842DAE70D
S21440023070B58B6803F0C072B2F1C07F14BF002562
S21440024002250A7800EB4216D6F80C4224F06044A9
S2144002504C61C3F303438B71D6F814428C61042B74
S21440026002D9D6F81832CB6100EB4212D2F81032DF
S2144002708B6013F0807F18BF45F00405014B98470C
S214400280284670BD970140000B7800EB4312D2F829
S21440029010228A6012F4000F28D010B44A79FAB1BE
S2144002A00A6942F0005200EB4314C4F808228C69F5
S2144002B000EB4312C2F814428A79042A04D9CC6966
S2144002C000EB4312C2F818428A79120402F47022F4
S2144002D000EB4310C0F81C2200205DF8044B70472A
S2144002E00C6900EB4312C2F80842E0E70120704771
S2144002F070B588B0064600248DF80440044D00943E
S21440030069463046A8470134082CF8D108B070BD7D
S214400310AF014000F8B546F2A81303FB02F40B19F0
S214400320013BB3FBF4F3802B66D84FF4FA5404FB3E
S21440033002F4B4EB510F61D84FF47A7303FB02F228
S21440034008274FF0FF363B4604E00133DBB2144447
S2144003501A2B0CD0B1FBF4F5802DF6D804FB1515FE
S214400360B542F2D215B12E461F46EEE71F4602FBB7
S21440037007F2B1FBF2F1CBB2012B41D90446A7F10B
S2144003800802036823F0010303601E4D5600B718A9
S21440039005EB4707BB78013B1B0103F070037878F9
S2144003A00138000200F4E0600343F878013800F0BA
S2144003B0070003433A79013A120302F440521343CA
S2144003C0CAB2013A120402F4FE02134363612046A5
S2144003D00D4B9847236843F00103236000230B49E5
S2144003E02269013312F4001F01D18B42F8D107482D
S2144003F0181A18BF0120F8BD0020F8BD0020F8BD2F
S2144004000020F8BDD4184000F1024000A08601004C
S21440041010B489014318022444504FF0FF319962CA
S214400420196A5A605DF8044B7047890105234350AA
S214400430704700EB8111CA61704700EB81114A6238
S214400440704700EB8111086A7047F0B486B002240A
S21440045001940824029420240394802404940A9C43
S214400460E40B0594B0EB510F14D84C0CA04217D2B5
S214400470012501AF57F82540B1FBF4F4260C844221
S2144004800AD386420DD90135052DF3D1002006B09A
S214400490F0BC70470020FAE70020F8E70120F6E7B6
S2144004A000252AB106A901EB850151F8141C1160FC
S2144004B0002BF3D01D600120E9E7000084B0204BFC
S2144004C00F225A66D3ED1A7AF8EE677ACDED037AA4
S2144004D0DDED037A9FED1B7A67EE877ADFED1A6AC9
S2144004E087EEA67A8DED037ADDED037A9FED177AD7
S2144004F077EEC77A9FED167A67EE877ADFED156A54
S21440050087EEA67AF3EE0B7A77EE277ACDED037A6E
S2144005109DED037ADFED107AB4EEE77AF1EE10FA4D
S214400520C4BF17EE903A0393DDED037AFCEEE77A0C
S214400530CDED017A9DF80430084A937004B07047B8
S21440054000000B4000404E4500F07F470000B4449A
S2144005500000C8420000EB4300007F435C040020DC
S2144005602DE9F04786B08A4B40F2FF321A601A6196
S214400570C3F8A020874A4FF4E471116012681A63EA
S2144005800A241E460827B846C6F834808248834D5B
S214400590A84737638248A847013CF5D1814C4FF4C1
S2144005A07A72814B19682046804B98474FF0FF314E
S2144005B020467F4B984720467E4B984725467E4CA4
S2144005C02846A04710F0F85FFAD176487B4B98470C
S2144005D020227B4B5A607B4C04F5807123460022D8
S2144005E01A601A715A719A71DA719A60DA601A61F1
S2144005F05A619A61DA6120338B42F1D1714D002302
S2144006002B6001272F71704BEB604FF08D632B6191
S214400610644E29463046DFF8C081C0472F6285F8D1
S21440062024706A4BEB624FF08C632B6305F120011C
S2144006303046C04766493046664B98474FF0A0560E
S2144006400225DFF88491DFF85C81634F256403233D
S21440065084F844300023E36406EA0903236504F182
S21440066040014046B8470135203406F58026072D20
S214400670ECD15A4C20465A4B98475A4D28465A4B2E
S21440068098474FF4A0232B600023AB75294620469D
S214400690564B9847636823F08F0363605448554B26
S2144006A09847554E06F11409DFF844812546534FC6
S2144006B036F8024B424621462846B8476C664FF409
S2144006C00063EB664FF6FF739C421ABF012303FAA2
S2144006D004F44FF6FF746C614E45E9D13F4D444AF1
S2144006E00F212846454B98470F266E664FF4006309
S2144006F0EB6604A8424B984700248DF8104004A9A6
S2144007002846404B98474FF400436B6101233E4ACE
S214400710314628463D4DA8473D4FDFF80891224ECA
S214400720DFF8048159F824503168009102AB03AADF
S2144007302846C0473368039AB3FBF2F3B3FBF5F59C
S214400740DFF8E8A0029A42F4804221465046314BF8
S21440075098472A46214650462F4B98471022214616
S21440076050462E4B9847214650462D4B984717F9F2
S214400770013B590903F01F03012202FA03F3104A12
S21440078042F821300134032CCCD106B0BDE8F087C6
S21440079000140E40100000206918050001000020DB
S2144007A04DFF020000000140740400201503400085
S2144007B07D0140006F01400081014000650140001E
S2144007C000E100E0A40400200000FC1FFFFFFB1F28
S2144007D00300080079014000AF01400000000B40D4
S2144007E08111400088040020A50F4000F50F40000E
S2144007F084040020D50F400040194000610F40009F
S214400800DF0F4000910F4000BD0440000111400042
S2144008108819400011044000330440003B04400067
S2144008202B0440007C1940004B0440000000094067
S21440083011B9034B58637047014B1863704700BFAC
S21440084000140E402DE9F04F164B174903F178057A
S2144008504FF0000A154C9C465746D6464FF00209C4
S2144008604FF0010805E0CCF80870F2460C33AB4276
S21440087013D051F8046B1A78A4FB02B2B6EB920F71
S214400880F1D25A68142AEED99A6801329A60052A3B
S214400890ECD983F80190C246E8E7054B83F803A0FD
S2144008A0BDE8F08F640600208C194000CDCCCCCC3F
S2144008B05C04002010B483B007EE102A01228A4060
S2144008C0194C236B1A42FCD04166D0ED1A7AF8EEEA
S2144008D0677AB8EE477A77EEC77A9FED147A67EE76
S2144008E0877A9FED137AC7EE876A9FED127AC6EE37
S2144008F0877AB2EE0A7A67EE877AB1EE047A67EEC6
S214400900877AB7EE007AF4EEC77AF1EE10FA5DBF5A
S214400910FCEEE77ACDED017A9DF80400002003B0A6
S2144009205DF8044B704700BF00000B4000404E454A
S21440093000F07F4700005C432DE9F84F02221C4B35
S2144009401A60DFF880801B4F1B4C00252E46DFF8D0
S21440095078B09A46DFF8749015E05A6801325A60CB
S2144009601A789A7057F8042B38F8021B5046C84736
S21440097004F80C0B114BA3FB003006EB9006F6B2C6
S21440098001350A2D10D0DBF800200123AB4013427E
S21440099006D023466278002ADFD101226270DCE767
S2144009A0002363706360DDE7054B1E71BDE8F88F7A
S2144009B000000B405419400064060020CDCCCCCC3F
S2144009C05C0400204019400010000020B50840009C
S2144009D070B572B60B4C236840F20D252B400A4E7C
S2144009E073630A480A4B984723682B403363226850
S2144009F023682A4023EA0203236062B6BFF36F8F60
S214400A0070BD00BF6404002000140E406918050045
S214400A10010000200369164A93421DD0B3F18D6F42
S214400A2003D0B3F18C6F0FD07047826942F4E47202
S214400A30104B1A600021104A116019680F4A116362
S214400A401B68DB4353637047027F4FF4167303FB08
S214400A5002F30B4A13607047027F094B9A71427F3C
S214400A60837F43EA02231BB2064A1380DCE700BFBB
S214400A7000006404100000206804002000140E40AB
S214400A807C0400205C04002070B52B482B4B984714
S214400A9010F0FF0F22D00024274E294DE1B23046F9
S214400AA0A84710F4000F03D10134082CF6D170BDCE
S214400AB0E4B2244B03EB4414A0601F4E214630465C
S214400AC0214B98472046214B9847012525712146C2
S214400AD030461F4B98471F4B1D7070BD10F4002FBB
S214400AE000D170BD1C4B48221A6019681B4A11631E
S214400AF01B68DB4353630122194BDA700E4C4FF4EC
S214400B007A72184B19682046174B98474FF0FF31BA
S214400B102046164B984772B62046154B98472546B2
S214400B20064C2846A04710F0F85FFAD10248114B11
S214400B30984762B6D5E700BF0000014081014000FB
S214400B408D014000A404002031024000150A4000F8
S214400B50AF0140006D0400201000002000140E403D
S214400B605C04002074040020150340007D01400012
S214400B706F014000650140002DE9F04F83B0DFF87B
S214400B80ACB24FF00009DFF894A2CDF80490DFF83D
S214400B90A0820125009550E00133042B0DD0D8F8F3
S214400BA0001003EB090205FA02F20A42F4D0DA001A
S214400BB005FA02F21043009CEEE72CB909F1040254
S214400BC000231E461C4606E0CAF85800F6E70132E7
S214400BD00833202B0AD0D8F8001005FA02F0084255
S214400BE0F5D005FA03F10C43009EF0E76EBB1BF808
S214400BF0012BDAF858301343CAF8583008238AF8DD
S214400C0046300AF14006804C314620467F4B984796
S214400C10314620467E4B98477E4E7F4F02212046E7
S214400C20B04710F4000F03D12046B8476428F5D9E2
S214400C3009F10809B9F1180F0AD0019CCAF85840C2
S214400C40CAF85C4000231846A9E7CAF85C40CEE7DD
S214400C50724C0023A365E365714B9A7884F859205B
S214400C60072284F85A20DA7884F85B20A26D42F096
S214400C703002A2651B7984F85C304FF0080884F88F
S214400C80468004F14006604D314628465F4FB847DF
S214400C90314628465E4EB0470122624B1A7084F8B1
S214400CA0C680614B5A7884F8D8205A7B84F8D9207D
S214400CB05A7E84F8DA2093F8252084F8DB2093F8CF
S214400CC0312084F8DC2093F83D2084F8DD2093F82A
S214400CD0492084F8DE2093F8553084F8DF30C0345D
S214400CE021462846B84721462846B0472C46494D17
S214400CF0494E06212046A84710F4000F03D120464F
S214400D00B0476428F5D9454C474B93F8612042F0EC
S214400D10400284F8D82093F86D2084F8D92093F8C0
S214400D20792084F8DA2093F8852084F8DB2093F83D
S214400D30912084F8DC2093F89D2084F8DD2093F8F9
S214400D40A92084F8DE2093F8B53084F8DF30C0342C
S214400D502D4D214628462D4B9847214628462C4B5C
S214400D6098472C462B4D2C4E06212046A84710F47B
S214400D70000F03D12046B0476428F5D90822274BF8
S214400D8083F86620284F4FF00009984603F1600A22
S214400D901D4CDFF878B0204E05E009F101095437C4
S214400DA0B9F1020F2DD088F878903B7888F87930E2
S214400DB03B7B88F87A303B7E88F87B3097F8243047
S214400DC088F87C3097F8303088F87D3097F83C309B
S214400DD088F87E3097F8483088F87F30514620466D
S214400DE0D847514620460A4B98470A4D032120468D
S214400DF0A84710F4000FD0D12046B0476428F5D954
S214400E00CBE703B0BDE8F08F000001408902400008
S214400E10970140008D01400085014000A404002059
S214400E205C0400206C04002064060020B4194000D6
S214400E3010000020064B48221A601968054A1163C4
S214400E401B68DB4353630122034BDA70704700BFD5
S214400E501000002000140E405C04002010B50E4820
S214400E600E4B98473E2100200D4B98470D4CA0470F
S214400E700028FCD00C4B98470C4A0D4B9A620D4C00
S214400E80A0470028FCD010200B4B98470B4B9847A8
S214400E900B48024B984710BD000E2707E915400047
S214400EA0491240009D124000AD124000043F1520FC
S214400EB000040E40BD124000E5114000DD14400025
S214400EC0C03B470370B582B0026BC36A13400193C0
S214400ED00024214DA84214BF002501256E002E4453
S214400EE00BE0142C24D8019A04F1080101238B400E
S214400EF0134213D10134172C2BD00F2CF1D8019A62
S214400F000123A3401342F5D0C5EBC6032344134A3E
S214400F1052F82330002BEDD09847EBE7C5EBC603DD
S214400F2023440E4A52F82330002BE3D09847E1E79B
S214400F30019A04F1090101238B401342DAD0C5EB34
S214400F40C6032344054A52F82330002BD2D0984794
S214400F50D0E702B070BD00BF00400B40AC0500209B
S214400F6030B4046E01238B4024EA03041578002D28
S214400F7008BF002323430366446D4B00032199407A
S214400F8024EA0104517899402143416530BC7047BA
S214400F904B780A78134303678A884B8843EA0243B0
S214400FA04367704700220260084B4360084B8360EB
S214400FB04FF48023C3600261022303750123437507
S214400FC08375C2750376437683767047C03B470386
S214400FD0808D5B000023037001234370704700231D
S214400FE0037020234370FF23438040F6FF738380C3
S214400FF070470000036B13F0807F01D019207047C4
S21440100070B401230360CB7D002B14BF4FF0004526
S21440101000258B7D002B14BF4FF4000400240B7D6D
S2144010201B0603F070630A69CE68324313434A7D59
S214401030120702F0405213438A6856004A68B2FBD1
S214401040F6F2013A120292B213432B432343436013
S2144010500B7E002B14BF4FF0807300230A681343A7
S2144010604A7E002A14BF4FF000720022134383606A
S2144010708B7E1B0203F44073C0F894300E4B9842AC
S21440108005D00E4B98420CD0002070BC70470C4BDD
S21440109003F15C01002243F8042F8B42FBD1002071
S2144010A0F3E7084B03F15C01002243F8042F8B4220
S2144010B0FBD10020E9E700BF00000B4000400B409A
S2144010C0A8050020040600200C4B994207D00F29A3
S2144010D00BD806D0012303FA01F141627047436200
S2144010E070474FF4004343627047142994BF083159
S2144010F00931012303FA01F141627047FFFF00DF27
S21440110038B5114CA0420CBF172400240C440F4D98
S21440111045F824200AD10E4A4FF00044C2F88041D8
S2144011201B01DBB282F81F33146009E0084A4FF017
S2144011308044C2F880411B01DBB282F81E33146043
S214401140044B984738BD00BF00400B40AC0500201C
S21440115000E100E0C910400008B50248024B98473D
S21440116008BD00BF00000B40C50E400008B5024851
S214401170024B984708BD00BF00400B40C50E4000DC
S21440118000B583B0134B98420CBF1F201E20124B55
S2144011909847124B9B78FF2B1AD0EFF31083B3FA85
S2144011A083F35B09019372B6BFF35F8F00220C4B4B
S2144011B01A700199094A93780133937029B1012234
S2144011C0074B1A70BFF35F8F62B603B05DF804FB3F
S2144011D0FEE700BF00400B40CD124000A4050020B3
S2144011E00A000020174A136B23F07003184310635D
S2144011F0936E13F0080F0AD14FF4006311498A6EBC
S21440120012F0080F03D1013BF9D1012070470D4A77
S214401210136B23F0030343F002031363936E13F040
S214401220080F0AD14FF4006306498A6E12F0080F81
S21440123005D1013BF9D101207047002070470020BE
S214401240704700BF00040E40C8B9114A136A09022D
S21440125089B223F45C1323F0030343F45C1343F096
S21440126001030B431362936E13F0010FFBD0084A41
S214401270136A43F09B7343F4803313627047044908
S2144012800B6A044A1A40044B13430B62704700BF74
S21440129000040E40FCFFC8FE02003701024B986E69
S2144012A000F48030704700BF00040E404FF00052FC
S2144012B0014B9A62704700BF00040E40024B986E86
S2144012C000F00200704700BF00040E402F281ED8D2
S2144012D01F280CD8114B9A6901238340934318D09A
S2144012E0012303FA00F00D4B1861002070472038A8
S2144012F00A4BD3F808210123834093430BD00123A4
S21440130003FA00F0054BC3F80001002070470120A7
S2144013107047002070470020704700BF00040E4012
S21440132070B54FF40040364B5860A3F5056308226D
S2144013301A66C3F890205A655A62C3F88020196F1F
S21440134021F008011967596F21F0080159675A6062
S21440135004211966C3F8901059655962C3F8801085
S2144013601C6F24F004041C675C6F24F004045C6764
S2144013705960244C01232361C4F8A030224B4FF41B
S21440138000751D61C3F8A050A3F500734FF4805557
S2144013901D66C3F890505D655D62C3F880501E6F51
S2144013A026F480561E675E6F2E435E675D60186645
S2144013B0C3F8900058655862C3F880001D6F25F446
S2144013C000451D675D6F05435D6758602161C4F841
S2144013D0A0102261C4F8A02009200C4CA0470A2087
S2144013E0A0470B20A0470C20A0470D20A047252053
S2144013F0A0471520A0471620A0471720A04770BD3D
S21440140050180E4000160E4000140E40CD124000FC
S214401410FEE7000000B583B0254B264A9A4210D01E
S214401420254B234A9A420CD2013B9B1A23F00303D6
S214401430043313441F4951F8040B42F8040B9A42F4
S214401440F9D11E4B1E4A9A420AD2013B9B1A23F000
S214401450030304331344002142F8041B9342FBD198
S214401460184A194B23F07F039360EFF31083B3FAC7
S21440147083F35B09019372B6BFF35F8F0022134B71
S2144014801A700199124A136843F470031360BFF34D
S2144014904F8FBFF36F8F29B101220C4B1A70BFF3E9
S2144014A05F8F62B60B4B98470B4B9847FEE700BFE3
S2144014B000000020E419400040040020E40700201B
S2144014C04004002000ED00E0000040000A0000203C
S2144014D088ED00E08D1740005D1640003B4B1B6BCF
S2144014E003F00303012B1DD083B1022B36D0374BBC
S2144014F01B6B03F07003702B5FD0344B1A6B344970
S214401500C2F302120B68D3400B607047314B5B69E5
S21440151013F0800F14BF4FF400424FF4FA422C4BA6
S2144015201A60E4E7294B1B6A13F0807F03D02A4AEF
S214401530274B1A60DBE7294A254B1A60234B1B6A68
S21440154003F07003102B05D0202BD0D1224A204B1D
S2144015501A60CCE7224A1E4B1A60C8E71B4B1B6A30
S21440156013F0807F16D01C4A194B1A60174B1B6B22
S21440157003F00303022BBAD1144A916A926A1448C4
S214401580C1F30A41036801FB0333D2B2B3FBF2F363
S2144015900360ACE7114A0E4B1A600C4B1B6A03F013
S2144015A07003102B05D0202BE0D10B4A084B1A6055
S2144015B0DCE70B4A064B1A60D8E7054A1368094928
S2144015C0A1FB03135B081360704700BF00040E4086
S2144015D00C00002010180E40001BB70000093D000C
S2144015E000127A00ABAAAAAA124B984211D9124B03
S2144015F0984213D9114B984214D9114B984215D999
S214401600104B984294BF4FF004220F4A0F4B1A607B
S21440161070474FF080620D4B1A6070470C4A0B4B78
S2144016201A6070470B4A094B1A6070470A4A074BC4
S2144016301A607047FF2C3101FF596202FF86930300
S214401640FFB3C404FFE0F50500050004000A0E40A1
S21440165000010004000200040003000408B50D4B1E
S21440166098470D4A0D4B1A600D4B98470D4B9847BF
S2144016700D4E0E4C0CE0237823B92B78002BFAD174
S214401680B047F8E70A4B98470A4B98470023237021
S214401690094DF2E75D0E4000C03B4703740400204E
S2144016A02113400061054000790B4000780400207B
S2144016B039094000450840006C04002008B5002168
S2144016C00A480B4B98470B4B1A6801321A601B6846
S2144016D0322B04D800210548074B984708BD022204
S2144016E0064B1A70064B9847F4E700BF00000940C7
S2144016F043044000680400202B0440006D04002092
S214401700350E400010B5074C01212046064B984741
S2144017100022064B1A700121054B19702046054BD6
S214401720984710BD00000940430440006C04002068
S214401730780400202B04400008B502210C480D4BCD
S21440174098470D4B1B680BB10C4B98470C4B9B783E
S214401750DBB24B2B06D9002140F2FF30094B9847AD
S21440176072B6FEE702210248074B984708BD00BF05
S214401770000009404304400070040020D1094000A6
S2144017805C040020310840002B04400070B50F4E2A
S2144017900F4D761BB61018BF002405D0013455F8FF
S2144017A0043B9847A642F9D10A4E0B4D761B00F0F3
S2144017B007F9B61018BF002406D0013455F8043B8C
S2144017C09847A642F9D170BD70BD00BFCC19400005
S2144017D0CC194000D4194000CC194000024B13B13C
S2144017E0024800F005B8704700000000FD174000B2
S2144017F0002301461A46184600F01AB838B50A4C77
S2144018000A4D641BA4100AD004F18043013B05EB4B
S2144018108305013C55F804399847002CF9D1BDE8BA
S214401820384000F0D7B800BFE4194000E019400047
S2144018302DE9F047254C2568D5F8484106468846A8
S21440184092469946C4B360681F2817DC431C76B19D
S21440185004EB80050122C5F888A0D4F888118240A0
S2144018601143022EC4F88811C5F808911ED00230E4
S214401870636044F820800020BDE8F087144B03B333
S2144018804FF4C870AFF300800446D0B1D5F8483165
S214401890002780E88800C5F8484138460123C4F848
S2144018A08871C4F88C71002EE1D0D1E7D4F88C1141
S2144018B00A43C4F88C21DAE705F5A674C5F8484112
S2144018C0C1E74FF0FF30BDE8F08700BFBC194000CD
S2144018D00000000008030202034B09020303024310
S2144018E00A03030303460B04030304480C030404DF
S2144018F004430D040404044D0E04040504400F0480
S214401900050504431005050504451106050504476D
S2144019101205060604431306060604441407060684
S2144019200446150806060447160707070444170822
S214401930080704461807080804431908080804441A
S2144019400000020001000300040005000A00090030
S21440195006000B00CB020000D0020000DA020000B6
S214401960E4020000B202000094020000940200006C
S21440197052030000C6020000760200006400000029
S2144019800A00000001000000151617001A000000AB
S2144019900A0000000F0000000C00000002000000DB
S2144019A006000000060000000300000005000000DE
S2144019B00F0000000010203000000000180000203B
S2144019C0F8B500BFF8BC08BC9E467047DD1740001F
S2144019D01D014000F8B500BFF8BC08BC9E467047E5
S2084019E0F900400085
S2144019E4BFF35F8F0138FBD17047010000093D000B
S2144019F4C8010000000000000000000004030020AE
S214401A046C030020D4030020000000000000000007
S214401A14000000000000000000000000000000007D
S214401A24000000000000000000000000000000006D
S214401A34000000000000000000000000000000005D
S214401A44000000000000000000000000000000004D
S214401A54000000000000000000000000000000003D
S214401A64000000000000000000000000000000002D
S214401A74000000000000000000000000000000001D
S214401A84000000000000000000000000000000000D
S214401A9400000000000000000000000000000000FD
S214401AA401000000000000000E33CDAB34126DE69A
S214401AB4ECDE05000B000000000000000000000003
S214401AC400000000000000000000000000000000CD
S214401AD400000000000000000000000000000000BD
S214401AE400000000000000000000000000000000AD
S214401AF4000000000000000000000000000000009D
S80440141592
